{
  "_format": "hh-sol-artifact-1",
  "contractName": "LinkTokenCrowdsale",
  "sourceName": "contracts/LinkTokenCrowdsale.sol",
  "abi": [
    {
      "inputs": [
        {
          "internalType": "contract LinkToken",
          "name": "_token",
          "type": "address"
        },
        {
          "internalType": "uint256",
          "name": "_tokenPrice",
          "type": "uint256"
        },
        {
          "internalType": "uint256",
          "name": "_referrer_percentage",
          "type": "uint256"
        },
        {
          "internalType": "uint256",
          "name": "_totalTokensForAirdrop",
          "type": "uint256"
        },
        {
          "internalType": "uint256",
          "name": "_amtClaimedPerAirdrop",
          "type": "uint256"
        }
      ],
      "stateMutability": "nonpayable",
      "type": "constructor"
    },
    {
      "anonymous": false,
      "inputs": [
        {
          "indexed": false,
          "internalType": "address",
          "name": "_buyer",
          "type": "address"
        },
        {
          "indexed": false,
          "internalType": "uint256",
          "name": "_numberOfTokens",
          "type": "uint256"
        }
      ],
      "name": "Sell",
      "type": "event"
    },
    {
      "inputs": [
        {
          "internalType": "address",
          "name": "",
          "type": "address"
        }
      ],
      "name": "TotalReferralsForUser",
      "outputs": [
        {
          "internalType": "uint256",
          "name": "",
          "type": "uint256"
        }
      ],
      "stateMutability": "view",
      "type": "function"
    },
    {
      "inputs": [
        {
          "internalType": "address",
          "name": "",
          "type": "address"
        },
        {
          "internalType": "uint256",
          "name": "",
          "type": "uint256"
        }
      ],
      "name": "UserReferrals",
      "outputs": [
        {
          "internalType": "address",
          "name": "referral_address",
          "type": "address"
        },
        {
          "internalType": "uint256",
          "name": "amount",
          "type": "uint256"
        }
      ],
      "stateMutability": "view",
      "type": "function"
    },
    {
      "inputs": [],
      "name": "amtClaimedPerAirdrop",
      "outputs": [
        {
          "internalType": "uint256",
          "name": "",
          "type": "uint256"
        }
      ],
      "stateMutability": "view",
      "type": "function"
    },
    {
      "inputs": [
        {
          "internalType": "uint256",
          "name": "_numberOfTokens",
          "type": "uint256"
        },
        {
          "internalType": "address",
          "name": "referrer",
          "type": "address"
        }
      ],
      "name": "buyTokens",
      "outputs": [],
      "stateMutability": "payable",
      "type": "function"
    },
    {
      "inputs": [],
      "name": "claimAirdrop",
      "outputs": [
        {
          "internalType": "bool",
          "name": "success",
          "type": "bool"
        }
      ],
      "stateMutability": "nonpayable",
      "type": "function"
    },
    {
      "inputs": [],
      "name": "endSale",
      "outputs": [],
      "stateMutability": "nonpayable",
      "type": "function"
    },
    {
      "inputs": [],
      "name": "referrer_percentage",
      "outputs": [
        {
          "internalType": "uint256",
          "name": "",
          "type": "uint256"
        }
      ],
      "stateMutability": "view",
      "type": "function"
    },
    {
      "inputs": [
        {
          "internalType": "contract TokenTimeLock",
          "name": "_tokenTimeLock",
          "type": "address"
        }
      ],
      "name": "setTimeLock",
      "outputs": [],
      "stateMutability": "nonpayable",
      "type": "function"
    },
    {
      "inputs": [
        {
          "internalType": "address",
          "name": "userToWhiteList",
          "type": "address"
        }
      ],
      "name": "setWhiteListedAddressForAirdrop",
      "outputs": [],
      "stateMutability": "nonpayable",
      "type": "function"
    },
    {
      "inputs": [],
      "name": "token",
      "outputs": [
        {
          "internalType": "contract LinkToken",
          "name": "",
          "type": "address"
        }
      ],
      "stateMutability": "view",
      "type": "function"
    },
    {
      "inputs": [],
      "name": "tokenPrice",
      "outputs": [
        {
          "internalType": "uint256",
          "name": "",
          "type": "uint256"
        }
      ],
      "stateMutability": "view",
      "type": "function"
    },
    {
      "inputs": [],
      "name": "tokenTimeLock",
      "outputs": [
        {
          "internalType": "contract TokenTimeLock",
          "name": "",
          "type": "address"
        }
      ],
      "stateMutability": "view",
      "type": "function"
    },
    {
      "inputs": [],
      "name": "tokensSold",
      "outputs": [
        {
          "internalType": "uint256",
          "name": "",
          "type": "uint256"
        }
      ],
      "stateMutability": "view",
      "type": "function"
    },
    {
      "inputs": [],
      "name": "totalTokensAirdropped",
      "outputs": [
        {
          "internalType": "uint256",
          "name": "",
          "type": "uint256"
        }
      ],
      "stateMutability": "view",
      "type": "function"
    },
    {
      "inputs": [],
      "name": "totalTokensForAirdrop",
      "outputs": [
        {
          "internalType": "uint256",
          "name": "",
          "type": "uint256"
        }
      ],
      "stateMutability": "view",
      "type": "function"
    },
    {
      "inputs": [
        {
          "internalType": "address",
          "name": "",
          "type": "address"
        }
      ],
      "name": "whiteListedAddressForAirdrop",
      "outputs": [
        {
          "internalType": "bool",
          "name": "",
          "type": "bool"
        }
      ],
      "stateMutability": "view",
      "type": "function"
    }
  ],
  "bytecode": "0x60806040523480156200001157600080fd5b5060405162001eee38038062001eee83398181016040528101906200003791906200010d565b336000806101000a81548173ffffffffffffffffffffffffffffffffffffffff021916908373ffffffffffffffffffffffffffffffffffffffff16021790555084600160006101000a81548173ffffffffffffffffffffffffffffffffffffffff021916908373ffffffffffffffffffffffffffffffffffffffff16021790555083600381905550826005819055508160088190555080600981905550505050505062000215565b600081519050620000f081620001e1565b92915050565b6000815190506200010781620001fb565b92915050565b600080600080600060a086880312156200012657600080fd5b60006200013688828901620000df565b95505060206200014988828901620000f6565b94505060406200015c88828901620000f6565b93505060606200016f88828901620000f6565b92505060806200018288828901620000f6565b9150509295509295909350565b60006200019c82620001b7565b9050919050565b6000620001b0826200018f565b9050919050565b600073ffffffffffffffffffffffffffffffffffffffff82169050919050565b6000819050919050565b620001ec81620001a3565b8114620001f857600080fd5b50565b6200020681620001d7565b81146200021257600080fd5b50565b611cc980620002256000396000f3fe6080604052600436106100f35760003560e01c80637ff9b5961161008a578063c625e9b111610059578063c625e9b11461031b578063dc506e1914610337578063e7f8e6e514610362578063fc0c546a1461038d576100f3565b80637ff9b59614610273578063891682d21461029e578063905b54d5146102c7578063b465cfd0146102f2576100f3565b80634da7568c116100c65780634da7568c146101b5578063518ab2a8146101e05780635b88349d1461020b5780636fefebf614610236576100f3565b80631bab8472146100f8578063257f791414610123578063380d831b1461016057806338af497314610177575b600080fd5b34801561010457600080fd5b5061010d6103b8565b60405161011a919061195e565b60405180910390f35b34801561012f57600080fd5b5061014a600480360381019061014591906112cf565b6103be565b604051610157919061195e565b60405180910390f35b34801561016c57600080fd5b506101756103d6565b005b34801561018357600080fd5b5061019e600480360381019061019991906112f8565b6106b6565b6040516101ac9291906117e4565b60405180910390f35b3480156101c157600080fd5b506101ca610707565b6040516101d7919061195e565b60405180910390f35b3480156101ec57600080fd5b506101f561070d565b604051610202919061195e565b60405180910390f35b34801561021757600080fd5b50610220610713565b60405161022d919061180d565b60405180910390f35b34801561024257600080fd5b5061025d600480360381019061025891906112cf565b610a5e565b60405161026a919061180d565b60405180910390f35b34801561027f57600080fd5b50610288610a7e565b604051610295919061195e565b60405180910390f35b3480156102aa57600080fd5b506102c560048036038101906102c0919061135d565b610a84565b005b3480156102d357600080fd5b506102dc610ac8565b6040516102e9919061195e565b60405180910390f35b3480156102fe57600080fd5b50610319600480360381019061031491906112cf565b610ace565b005b610335600480360381019061033091906113af565b610b29565b005b34801561034357600080fd5b5061034c610eb7565b604051610359919061195e565b60405180910390f35b34801561036e57600080fd5b50610377610ebd565b6040516103849190611843565b60405180910390f35b34801561039957600080fd5b506103a2610ee3565b6040516103af9190611828565b60405180910390f35b600b5481565b60076020528060005260406000206000915090505481565b60008054906101000a900473ffffffffffffffffffffffffffffffffffffffff1673ffffffffffffffffffffffffffffffffffffffff163373ffffffffffffffffffffffffffffffffffffffff1614610464576040517f08c379a000000000000000000000000000000000000000000000000000000000815260040161045b9061187e565b60405180910390fd5b600160009054906101000a900473ffffffffffffffffffffffffffffffffffffffff1673ffffffffffffffffffffffffffffffffffffffff1663a9059cbb60008054906101000a900473ffffffffffffffffffffffffffffffffffffffff16600160009054906101000a900473ffffffffffffffffffffffffffffffffffffffff1673ffffffffffffffffffffffffffffffffffffffff166370a08231306040518263ffffffff1660e01b815260040161051e91906117c9565b60206040518083038186803b15801561053657600080fd5b505afa15801561054a573d6000803e3d6000fd5b505050506040513d601f19601f8201168201806040525081019061056e9190611386565b6040518363ffffffff1660e01b815260040161058b9291906117e4565b602060405180830381600087803b1580156105a557600080fd5b505af11580156105b9573d6000803e3d6000fd5b505050506040513d601f19601f820116820180604052508101906105dd9190611334565b6105e657600080fd5b60008060009054906101000a900473ffffffffffffffffffffffffffffffffffffffff1673ffffffffffffffffffffffffffffffffffffffff164760405161062d906117b4565b60006040518083038185875af1925050503d806000811461066a576040519150601f19603f3d011682016040523d82523d6000602084013e61066f565b606091505b50509050806106b3576040517f08c379a00000000000000000000000000000000000000000000000000000000081526004016106aa906118be565b60405180910390fd5b50565b6006602052816000526040600020602052806000526040600020600091509150508060000160009054906101000a900473ffffffffffffffffffffffffffffffffffffffff16908060010154905082565b60095481565b60045481565b6000600a60003373ffffffffffffffffffffffffffffffffffffffff1673ffffffffffffffffffffffffffffffffffffffff16815260200190815260200160002060009054906101000a900460ff16156107a2576040517f08c379a0000000000000000000000000000000000000000000000000000000008152600401610799906118fe565b60405180910390fd5b600060085414156107e8576040517f08c379a00000000000000000000000000000000000000000000000000000000081526004016107df9061185e565b60405180910390fd5b6000600954141561082e576040517f08c379a0000000000000000000000000000000000000000000000000000000008152600401610825906118de565b60405180910390fd5b600854600954600b546108419190611a0d565b1115610882576040517f08c379a00000000000000000000000000000000000000000000000000000000081526004016108799061193e565b60405180910390fd5b600160009054906101000a900473ffffffffffffffffffffffffffffffffffffffff1673ffffffffffffffffffffffffffffffffffffffff1663a9059cbb600260009054906101000a900473ffffffffffffffffffffffffffffffffffffffff166009546040518363ffffffff1660e01b81526004016109039291906117e4565b602060405180830381600087803b15801561091d57600080fd5b505af1158015610931573d6000803e3d6000fd5b505050506040513d601f19601f820116820180604052508101906109559190611334565b61095e57600080fd5b600260009054906101000a900473ffffffffffffffffffffffffffffffffffffffff1673ffffffffffffffffffffffffffffffffffffffff1663bad2e75f600954336040518363ffffffff1660e01b81526004016109bd9291906119b5565b602060405180830381600087803b1580156109d757600080fd5b505af11580156109eb573d6000803e3d6000fd5b505050506040513d601f19601f82011682018060405250810190610a0f9190611334565b610a1857600080fd5b610a2133610ace565b600954600b6000828254610a359190611a0d565b9250508190555060095460046000828254610a509190611a0d565b925050819055506001905090565b600a6020528060005260406000206000915054906101000a900460ff1681565b60035481565b80600260006101000a81548173ffffffffffffffffffffffffffffffffffffffff021916908373ffffffffffffffffffffffffffffffffffffffff16021790555050565b60055481565b6001600a60008373ffffffffffffffffffffffffffffffffffffffff1673ffffffffffffffffffffffffffffffffffffffff16815260200190815260200160002060006101000a81548160ff02191690831515021790555050565b81600160009054906101000a900473ffffffffffffffffffffffffffffffffffffffff1673ffffffffffffffffffffffffffffffffffffffff166370a08231306040518263ffffffff1660e01b8152600401610b8591906117c9565b60206040518083038186803b158015610b9d57600080fd5b505afa158015610bb1573d6000803e3d6000fd5b505050506040513d601f19601f82011682018060405250810190610bd59190611386565b1015610c16576040517f08c379a0000000000000000000000000000000000000000000000000000000008152600401610c0d9061191e565b60405180910390fd5b600160009054906101000a900473ffffffffffffffffffffffffffffffffffffffff1673ffffffffffffffffffffffffffffffffffffffff1663a9059cbb600260009054906101000a900473ffffffffffffffffffffffffffffffffffffffff16846040518363ffffffff1660e01b8152600401610c959291906117e4565b602060405180830381600087803b158015610caf57600080fd5b505af1158015610cc3573d6000803e3d6000fd5b505050506040513d601f19601f82011682018060405250810190610ce79190611334565b610cf057600080fd5b600260009054906101000a900473ffffffffffffffffffffffffffffffffffffffff1673ffffffffffffffffffffffffffffffffffffffff1663bad2e75f83336040518363ffffffff1660e01b8152600401610d4d929190611979565b602060405180830381600087803b158015610d6757600080fd5b505af1158015610d7b573d6000803e3d6000fd5b505050506040513d601f19601f82011682018060405250810190610d9f9190611334565b610da857600080fd5b8160046000828254610dba9190611a0d565b92505081905550600073ffffffffffffffffffffffffffffffffffffffff168173ffffffffffffffffffffffffffffffffffffffff1614158015610e2a57503373ffffffffffffffffffffffffffffffffffffffff168173ffffffffffffffffffffffffffffffffffffffff1614155b15610e7a57610e3a818333610f09565b610e79576040517f08c379a0000000000000000000000000000000000000000000000000000000008152600401610e709061189e565b60405180910390fd5b5b7f5e5e995ce3133561afceaa51a9a154d5db228cd7525d34df5185582c18d3df093383604051610eab9291906117e4565b60405180910390a15050565b60085481565b600260009054906101000a900473ffffffffffffffffffffffffffffffffffffffff1681565b600160009054906101000a900473ffffffffffffffffffffffffffffffffffffffff1681565b600080600554606485610f1c9190611a63565b610f269190611a94565b9050600160009054906101000a900473ffffffffffffffffffffffffffffffffffffffff1673ffffffffffffffffffffffffffffffffffffffff1663a9059cbb600260009054906101000a900473ffffffffffffffffffffffffffffffffffffffff16836040518363ffffffff1660e01b8152600401610fa79291906117e4565b602060405180830381600087803b158015610fc157600080fd5b505af1158015610fd5573d6000803e3d6000fd5b505050506040513d601f19601f82011682018060405250810190610ff99190611334565b61100257600080fd5b600260009054906101000a900473ffffffffffffffffffffffffffffffffffffffff1673ffffffffffffffffffffffffffffffffffffffff1663bad2e75f82876040518363ffffffff1660e01b815260040161105f9291906119b5565b602060405180830381600087803b15801561107957600080fd5b505af115801561108d573d6000803e3d6000fd5b505050506040513d601f19601f820116820180604052508101906110b19190611334565b6110ba57600080fd5b80600460008282546110cc9190611a0d565b925050819055506110de8584866110f3565b6110e757600080fd5b60019150509392505050565b600080600760008673ffffffffffffffffffffffffffffffffffffffff1673ffffffffffffffffffffffffffffffffffffffff16815260200190815260200160002054905060405180604001604052808573ffffffffffffffffffffffffffffffffffffffff16815260200184815250600660008773ffffffffffffffffffffffffffffffffffffffff1673ffffffffffffffffffffffffffffffffffffffff168152602001908152602001600020600083815260200190815260200160002060008201518160000160006101000a81548173ffffffffffffffffffffffffffffffffffffffff021916908373ffffffffffffffffffffffffffffffffffffffff16021790555060208201518160010155905050600760008673ffffffffffffffffffffffffffffffffffffffff1673ffffffffffffffffffffffffffffffffffffffff1681526020019081526020016000206000815461125390611b90565b9190508190555060019150509392505050565b60008135905061127581611c37565b92915050565b60008151905061128a81611c4e565b92915050565b60008135905061129f81611c65565b92915050565b6000813590506112b481611c7c565b92915050565b6000815190506112c981611c7c565b92915050565b6000602082840312156112e157600080fd5b60006112ef84828501611266565b91505092915050565b6000806040838503121561130b57600080fd5b600061131985828601611266565b925050602061132a858286016112a5565b9150509250929050565b60006020828403121561134657600080fd5b60006113548482850161127b565b91505092915050565b60006020828403121561136f57600080fd5b600061137d84828501611290565b91505092915050565b60006020828403121561139857600080fd5b60006113a6848285016112ba565b91505092915050565b600080604083850312156113c257600080fd5b60006113d0858286016112a5565b92505060206113e185828601611266565b9150509250929050565b6113f481611aee565b82525050565b61140381611b00565b82525050565b61141281611b48565b82525050565b61142181611b6c565b82525050565b60006114346032836119fc565b91507f41697264726f703a20746f6b656e7320666f722061697264726f70206861766560008301527f206e6f74206265656e206c6f63617465642100000000000000000000000000006020830152604082019050919050565b600061149a6028836119fc565b91507f43726f776473616c653a206f6e6c792061646d696e2063616e20656e6420637260008301527f6f776473616c65210000000000000000000000000000000000000000000000006020830152604082019050919050565b60006115006008836119fc565b91507f70757263686173650000000000000000000000000000000000000000000000006000830152602082019050919050565b60006115406025836119fc565b91507f43726f776473616c653a20756e61626c6520746f20726577617264207265666560008301527f72726572210000000000000000000000000000000000000000000000000000006020830152604082019050919050565b60006115a66005836119fc565b91507f626f6e75730000000000000000000000000000000000000000000000000000006000830152602082019050919050565b60006115e66020836119fc565b91507f43726f776473616c653a204661696c656420746f2073656e64206574686572216000830152602082019050919050565b60006116266029836119fc565b91507f41697264726f703a20616d6f756e7420746f20626520636c61696d656420697360008301527f206e6f74207365742100000000000000000000000000000000000000000000006020830152604082019050919050565b600061168c602c836119fc565b91507f41697264726f703a20796f752776652072656369657665642061697264726f7060008301527f2070726576696f75736c792100000000000000000000000000000000000000006020830152604082019050919050565b60006116f26000836119f1565b9150600082019050919050565b600061170c6034836119fc565b91507f43726f776473616c653a20596f752063616e277420627579206d6f726520746f60008301527f6b656e73207468616e20617661696c61626c65210000000000000000000000006020830152604082019050919050565b6000611772601b836119fc565b91507f41697264726f703a2061697264726f702068617320656e6465642100000000006000830152602082019050919050565b6117ae81611b3e565b82525050565b60006117bf826116e5565b9150819050919050565b60006020820190506117de60008301846113eb565b92915050565b60006040820190506117f960008301856113eb565b61180660208301846117a5565b9392505050565b600060208201905061182260008301846113fa565b92915050565b600060208201905061183d6000830184611409565b92915050565b60006020820190506118586000830184611418565b92915050565b6000602082019050818103600083015261187781611427565b9050919050565b600060208201905081810360008301526118978161148d565b9050919050565b600060208201905081810360008301526118b781611533565b9050919050565b600060208201905081810360008301526118d7816115d9565b9050919050565b600060208201905081810360008301526118f781611619565b9050919050565b600060208201905081810360008301526119178161167f565b9050919050565b60006020820190508181036000830152611937816116ff565b9050919050565b6000602082019050818103600083015261195781611765565b9050919050565b600060208201905061197360008301846117a5565b92915050565b600060608201905061198e60008301856117a5565b61199b60208301846113eb565b81810360408301526119ac816114f3565b90509392505050565b60006060820190506119ca60008301856117a5565b6119d760208301846113eb565b81810360408301526119e881611599565b90509392505050565b600081905092915050565b600082825260208201905092915050565b6000611a1882611b3e565b9150611a2383611b3e565b9250827fffffffffffffffffffffffffffffffffffffffffffffffffffffffffffffffff03821115611a5857611a57611bd9565b5b828201905092915050565b6000611a6e82611b3e565b9150611a7983611b3e565b925082611a8957611a88611c08565b5b828204905092915050565b6000611a9f82611b3e565b9150611aaa83611b3e565b9250817fffffffffffffffffffffffffffffffffffffffffffffffffffffffffffffffff0483118215151615611ae357611ae2611bd9565b5b828202905092915050565b6000611af982611b1e565b9050919050565b60008115159050919050565b6000611b1782611aee565b9050919050565b600073ffffffffffffffffffffffffffffffffffffffff82169050919050565b6000819050919050565b6000611b5382611b5a565b9050919050565b6000611b6582611b1e565b9050919050565b6000611b7782611b7e565b9050919050565b6000611b8982611b1e565b9050919050565b6000611b9b82611b3e565b91507fffffffffffffffffffffffffffffffffffffffffffffffffffffffffffffffff821415611bce57611bcd611bd9565b5b600182019050919050565b7f4e487b7100000000000000000000000000000000000000000000000000000000600052601160045260246000fd5b7f4e487b7100000000000000000000000000000000000000000000000000000000600052601260045260246000fd5b611c4081611aee565b8114611c4b57600080fd5b50565b611c5781611b00565b8114611c6257600080fd5b50565b611c6e81611b0c565b8114611c7957600080fd5b50565b611c8581611b3e565b8114611c9057600080fd5b5056fea2646970667358221220cbeef7f66e7e0c335f5964ddff500380bb8c9590d030817d1d7a1220fc24dc8864736f6c63430008000033",
  "linkReferences": {},
  "deployedLinkReferences": {}
}