{
  "_format": "hh-sol-artifact-1",
  "contractName": "LinkTokenCrowdsale",
  "sourceName": "contracts/LinkTokenCrowdsale.sol",
  "abi": [
    {
      "inputs": [
        {
          "internalType": "contract LinkToken",
          "name": "_token",
          "type": "address"
        },
        {
          "internalType": "uint256",
          "name": "_tokenPrice",
          "type": "uint256"
        },
        {
          "internalType": "uint256",
          "name": "_referrer_percentage",
          "type": "uint256"
        },
        {
          "internalType": "uint256",
          "name": "_totalTokensForAirdrop",
          "type": "uint256"
        },
        {
          "internalType": "uint256",
          "name": "_amtClaimedPerAirdrop",
          "type": "uint256"
        }
      ],
      "stateMutability": "nonpayable",
      "type": "constructor"
    },
    {
      "anonymous": false,
      "inputs": [
        {
          "indexed": false,
          "internalType": "address",
          "name": "_buyer",
          "type": "address"
        },
        {
          "indexed": false,
          "internalType": "uint256",
          "name": "_numberOfTokens",
          "type": "uint256"
        }
      ],
      "name": "Sell",
      "type": "event"
    },
    {
      "inputs": [
        {
          "internalType": "address",
          "name": "",
          "type": "address"
        }
      ],
      "name": "TotalReferralsForUser",
      "outputs": [
        {
          "internalType": "uint256",
          "name": "",
          "type": "uint256"
        }
      ],
      "stateMutability": "view",
      "type": "function"
    },
    {
      "inputs": [
        {
          "internalType": "address",
          "name": "",
          "type": "address"
        },
        {
          "internalType": "uint256",
          "name": "",
          "type": "uint256"
        }
      ],
      "name": "UserReferrals",
      "outputs": [
        {
          "internalType": "address",
          "name": "referral_address",
          "type": "address"
        },
        {
          "internalType": "uint256",
          "name": "amount",
          "type": "uint256"
        }
      ],
      "stateMutability": "view",
      "type": "function"
    },
    {
      "inputs": [],
      "name": "amtClaimedPerAirdrop",
      "outputs": [
        {
          "internalType": "uint256",
          "name": "",
          "type": "uint256"
        }
      ],
      "stateMutability": "view",
      "type": "function"
    },
    {
      "inputs": [
        {
          "internalType": "uint256",
          "name": "_numberOfTokens",
          "type": "uint256"
        },
        {
          "internalType": "address",
          "name": "referrer",
          "type": "address"
        }
      ],
      "name": "buyTokens",
      "outputs": [],
      "stateMutability": "payable",
      "type": "function"
    },
    {
      "inputs": [],
      "name": "claimAirdrop",
      "outputs": [
        {
          "internalType": "bool",
          "name": "success",
          "type": "bool"
        }
      ],
      "stateMutability": "nonpayable",
      "type": "function"
    },
    {
      "inputs": [],
      "name": "endSale",
      "outputs": [],
      "stateMutability": "nonpayable",
      "type": "function"
    },
    {
      "inputs": [],
      "name": "referrer_percentage",
      "outputs": [
        {
          "internalType": "uint256",
          "name": "",
          "type": "uint256"
        }
      ],
      "stateMutability": "view",
      "type": "function"
    },
    {
      "inputs": [
        {
          "internalType": "contract TokenTimeLock",
          "name": "_tokenTimeLock",
          "type": "address"
        }
      ],
      "name": "setTimeLock",
      "outputs": [],
      "stateMutability": "nonpayable",
      "type": "function"
    },
    {
      "inputs": [
        {
          "internalType": "address",
          "name": "userToWhiteList",
          "type": "address"
        }
      ],
      "name": "setWhiteListedAddressForAirdrop",
      "outputs": [],
      "stateMutability": "nonpayable",
      "type": "function"
    },
    {
      "inputs": [],
      "name": "token",
      "outputs": [
        {
          "internalType": "contract LinkToken",
          "name": "",
          "type": "address"
        }
      ],
      "stateMutability": "view",
      "type": "function"
    },
    {
      "inputs": [],
      "name": "tokenPrice",
      "outputs": [
        {
          "internalType": "uint256",
          "name": "",
          "type": "uint256"
        }
      ],
      "stateMutability": "view",
      "type": "function"
    },
    {
      "inputs": [],
      "name": "tokenTimeLock",
      "outputs": [
        {
          "internalType": "contract TokenTimeLock",
          "name": "",
          "type": "address"
        }
      ],
      "stateMutability": "view",
      "type": "function"
    },
    {
      "inputs": [],
      "name": "tokensSold",
      "outputs": [
        {
          "internalType": "uint256",
          "name": "",
          "type": "uint256"
        }
      ],
      "stateMutability": "view",
      "type": "function"
    },
    {
      "inputs": [],
      "name": "totalTokensAirdropped",
      "outputs": [
        {
          "internalType": "uint256",
          "name": "",
          "type": "uint256"
        }
      ],
      "stateMutability": "view",
      "type": "function"
    },
    {
      "inputs": [],
      "name": "totalTokensForAirdrop",
      "outputs": [
        {
          "internalType": "uint256",
          "name": "",
          "type": "uint256"
        }
      ],
      "stateMutability": "view",
      "type": "function"
    },
    {
      "inputs": [
        {
          "internalType": "address",
          "name": "",
          "type": "address"
        }
      ],
      "name": "whiteListedAddressForAirdrop",
      "outputs": [
        {
          "internalType": "bool",
          "name": "",
          "type": "bool"
        }
      ],
      "stateMutability": "view",
      "type": "function"
    }
  ],
  "bytecode": "0x60806040523480156200001157600080fd5b5060405162001ff838038062001ff883398181016040528101906200003791906200010d565b336000806101000a81548173ffffffffffffffffffffffffffffffffffffffff021916908373ffffffffffffffffffffffffffffffffffffffff16021790555084600160006101000a81548173ffffffffffffffffffffffffffffffffffffffff021916908373ffffffffffffffffffffffffffffffffffffffff16021790555083600381905550826005819055508160088190555080600981905550505050505062000215565b600081519050620000f081620001e1565b92915050565b6000815190506200010781620001fb565b92915050565b600080600080600060a086880312156200012657600080fd5b60006200013688828901620000df565b95505060206200014988828901620000f6565b94505060406200015c88828901620000f6565b93505060606200016f88828901620000f6565b92505060806200018288828901620000f6565b9150509295509295909350565b60006200019c82620001b7565b9050919050565b6000620001b0826200018f565b9050919050565b600073ffffffffffffffffffffffffffffffffffffffff82169050919050565b6000819050919050565b620001ec81620001a3565b8114620001f857600080fd5b50565b6200020681620001d7565b81146200021257600080fd5b50565b611dd380620002256000396000f3fe6080604052600436106100f35760003560e01c80637ff9b5961161008a578063c625e9b111610059578063c625e9b11461031b578063dc506e1914610337578063e7f8e6e514610362578063fc0c546a1461038d576100f3565b80637ff9b59614610273578063891682d21461029e578063905b54d5146102c7578063b465cfd0146102f2576100f3565b80634da7568c116100c65780634da7568c146101b5578063518ab2a8146101e05780635b88349d1461020b5780636fefebf614610236576100f3565b80631bab8472146100f8578063257f791414610123578063380d831b1461016057806338af497314610177575b600080fd5b34801561010457600080fd5b5061010d6103b8565b60405161011a9190611a68565b60405180910390f35b34801561012f57600080fd5b5061014a60048036038101906101459190611353565b6103be565b6040516101579190611a68565b60405180910390f35b34801561016c57600080fd5b506101756103d6565b005b34801561018357600080fd5b5061019e6004803603810190610199919061137c565b6106b6565b6040516101ac9291906118ce565b60405180910390f35b3480156101c157600080fd5b506101ca610707565b6040516101d79190611a68565b60405180910390f35b3480156101ec57600080fd5b506101f561070d565b6040516102029190611a68565b60405180910390f35b34801561021757600080fd5b50610220610713565b60405161022d91906118f7565b60405180910390f35b34801561024257600080fd5b5061025d60048036038101906102589190611353565b610a5e565b60405161026a91906118f7565b60405180910390f35b34801561027f57600080fd5b50610288610a7e565b6040516102959190611a68565b60405180910390f35b3480156102aa57600080fd5b506102c560048036038101906102c091906113e1565b610a84565b005b3480156102d357600080fd5b506102dc610ac8565b6040516102e99190611a68565b60405180910390f35b3480156102fe57600080fd5b5061031960048036038101906103149190611353565b610ace565b005b61033560048036038101906103309190611433565b610b29565b005b34801561034357600080fd5b5061034c610f04565b6040516103599190611a68565b60405180910390f35b34801561036e57600080fd5b50610377610f0a565b604051610384919061192d565b60405180910390f35b34801561039957600080fd5b506103a2610f30565b6040516103af9190611912565b60405180910390f35b600b5481565b60076020528060005260406000206000915090505481565b60008054906101000a900473ffffffffffffffffffffffffffffffffffffffff1673ffffffffffffffffffffffffffffffffffffffff163373ffffffffffffffffffffffffffffffffffffffff1614610464576040517f08c379a000000000000000000000000000000000000000000000000000000000815260040161045b90611968565b60405180910390fd5b600160009054906101000a900473ffffffffffffffffffffffffffffffffffffffff1673ffffffffffffffffffffffffffffffffffffffff1663a9059cbb60008054906101000a900473ffffffffffffffffffffffffffffffffffffffff16600160009054906101000a900473ffffffffffffffffffffffffffffffffffffffff1673ffffffffffffffffffffffffffffffffffffffff166370a08231306040518263ffffffff1660e01b815260040161051e91906118b3565b60206040518083038186803b15801561053657600080fd5b505afa15801561054a573d6000803e3d6000fd5b505050506040513d601f19601f8201168201806040525081019061056e919061140a565b6040518363ffffffff1660e01b815260040161058b9291906118ce565b602060405180830381600087803b1580156105a557600080fd5b505af11580156105b9573d6000803e3d6000fd5b505050506040513d601f19601f820116820180604052508101906105dd91906113b8565b6105e657600080fd5b60008060009054906101000a900473ffffffffffffffffffffffffffffffffffffffff1673ffffffffffffffffffffffffffffffffffffffff164760405161062d9061189e565b60006040518083038185875af1925050503d806000811461066a576040519150601f19603f3d011682016040523d82523d6000602084013e61066f565b606091505b50509050806106b3576040517f08c379a00000000000000000000000000000000000000000000000000000000081526004016106aa906119a8565b60405180910390fd5b50565b6006602052816000526040600020602052806000526040600020600091509150508060000160009054906101000a900473ffffffffffffffffffffffffffffffffffffffff16908060010154905082565b60095481565b60045481565b6000600a60003373ffffffffffffffffffffffffffffffffffffffff1673ffffffffffffffffffffffffffffffffffffffff16815260200190815260200160002060009054906101000a900460ff16156107a2576040517f08c379a000000000000000000000000000000000000000000000000000000000815260040161079990611a08565b60405180910390fd5b600060085414156107e8576040517f08c379a00000000000000000000000000000000000000000000000000000000081526004016107df90611948565b60405180910390fd5b6000600954141561082e576040517f08c379a0000000000000000000000000000000000000000000000000000000008152600401610825906119e8565b60405180910390fd5b600854600954600b546108419190611b17565b1115610882576040517f08c379a000000000000000000000000000000000000000000000000000000000815260040161087990611a48565b60405180910390fd5b600160009054906101000a900473ffffffffffffffffffffffffffffffffffffffff1673ffffffffffffffffffffffffffffffffffffffff1663a9059cbb600260009054906101000a900473ffffffffffffffffffffffffffffffffffffffff166009546040518363ffffffff1660e01b81526004016109039291906118ce565b602060405180830381600087803b15801561091d57600080fd5b505af1158015610931573d6000803e3d6000fd5b505050506040513d601f19601f8201168201806040525081019061095591906113b8565b61095e57600080fd5b600260009054906101000a900473ffffffffffffffffffffffffffffffffffffffff1673ffffffffffffffffffffffffffffffffffffffff1663bad2e75f600954336040518363ffffffff1660e01b81526004016109bd929190611abf565b602060405180830381600087803b1580156109d757600080fd5b505af11580156109eb573d6000803e3d6000fd5b505050506040513d601f19601f82011682018060405250810190610a0f91906113b8565b610a1857600080fd5b610a2133610ace565b600954600b6000828254610a359190611b17565b9250508190555060095460046000828254610a509190611b17565b925050819055506001905090565b600a6020528060005260406000206000915054906101000a900460ff1681565b60035481565b80600260006101000a81548173ffffffffffffffffffffffffffffffffffffffff021916908373ffffffffffffffffffffffffffffffffffffffff16021790555050565b60055481565b6001600a60008373ffffffffffffffffffffffffffffffffffffffff1673ffffffffffffffffffffffffffffffffffffffff16815260200190815260200160002060006101000a81548160ff02191690831515021790555050565b610b3582600354610f56565b3414610b76576040517f08c379a0000000000000000000000000000000000000000000000000000000008152600401610b6d906119c8565b60405180910390fd5b81600160009054906101000a900473ffffffffffffffffffffffffffffffffffffffff1673ffffffffffffffffffffffffffffffffffffffff166370a08231306040518263ffffffff1660e01b8152600401610bd291906118b3565b60206040518083038186803b158015610bea57600080fd5b505afa158015610bfe573d6000803e3d6000fd5b505050506040513d601f19601f82011682018060405250810190610c22919061140a565b1015610c63576040517f08c379a0000000000000000000000000000000000000000000000000000000008152600401610c5a90611a28565b60405180910390fd5b600160009054906101000a900473ffffffffffffffffffffffffffffffffffffffff1673ffffffffffffffffffffffffffffffffffffffff1663a9059cbb600260009054906101000a900473ffffffffffffffffffffffffffffffffffffffff16846040518363ffffffff1660e01b8152600401610ce29291906118ce565b602060405180830381600087803b158015610cfc57600080fd5b505af1158015610d10573d6000803e3d6000fd5b505050506040513d601f19601f82011682018060405250810190610d3491906113b8565b610d3d57600080fd5b600260009054906101000a900473ffffffffffffffffffffffffffffffffffffffff1673ffffffffffffffffffffffffffffffffffffffff1663bad2e75f83336040518363ffffffff1660e01b8152600401610d9a929190611a83565b602060405180830381600087803b158015610db457600080fd5b505af1158015610dc8573d6000803e3d6000fd5b505050506040513d601f19601f82011682018060405250810190610dec91906113b8565b610df557600080fd5b8160046000828254610e079190611b17565b92505081905550600073ffffffffffffffffffffffffffffffffffffffff168173ffffffffffffffffffffffffffffffffffffffff1614158015610e7757503373ffffffffffffffffffffffffffffffffffffffff168173ffffffffffffffffffffffffffffffffffffffff1614155b15610ec757610e87818333610f8d565b610ec6576040517f08c379a0000000000000000000000000000000000000000000000000000000008152600401610ebd90611988565b60405180910390fd5b5b7f5e5e995ce3133561afceaa51a9a154d5db228cd7525d34df5185582c18d3df093383604051610ef89291906118ce565b60405180910390a15050565b60085481565b600260009054906101000a900473ffffffffffffffffffffffffffffffffffffffff1681565b600160009054906101000a900473ffffffffffffffffffffffffffffffffffffffff1681565b600080821480610f7e575082828385610f6f9190611b9e565b925082610f7c9190611b6d565b145b610f8757600080fd5b92915050565b600080600554606485610fa09190611b6d565b610faa9190611b9e565b9050600160009054906101000a900473ffffffffffffffffffffffffffffffffffffffff1673ffffffffffffffffffffffffffffffffffffffff1663a9059cbb600260009054906101000a900473ffffffffffffffffffffffffffffffffffffffff16836040518363ffffffff1660e01b815260040161102b9291906118ce565b602060405180830381600087803b15801561104557600080fd5b505af1158015611059573d6000803e3d6000fd5b505050506040513d601f19601f8201168201806040525081019061107d91906113b8565b61108657600080fd5b600260009054906101000a900473ffffffffffffffffffffffffffffffffffffffff1673ffffffffffffffffffffffffffffffffffffffff1663bad2e75f82876040518363ffffffff1660e01b81526004016110e3929190611abf565b602060405180830381600087803b1580156110fd57600080fd5b505af1158015611111573d6000803e3d6000fd5b505050506040513d601f19601f8201168201806040525081019061113591906113b8565b61113e57600080fd5b80600460008282546111509190611b17565b92505081905550611162858486611177565b61116b57600080fd5b60019150509392505050565b600080600760008673ffffffffffffffffffffffffffffffffffffffff1673ffffffffffffffffffffffffffffffffffffffff16815260200190815260200160002054905060405180604001604052808573ffffffffffffffffffffffffffffffffffffffff16815260200184815250600660008773ffffffffffffffffffffffffffffffffffffffff1673ffffffffffffffffffffffffffffffffffffffff168152602001908152602001600020600083815260200190815260200160002060008201518160000160006101000a81548173ffffffffffffffffffffffffffffffffffffffff021916908373ffffffffffffffffffffffffffffffffffffffff16021790555060208201518160010155905050600760008673ffffffffffffffffffffffffffffffffffffffff1673ffffffffffffffffffffffffffffffffffffffff168152602001908152602001600020600081546112d790611c9a565b9190508190555060019150509392505050565b6000813590506112f981611d41565b92915050565b60008151905061130e81611d58565b92915050565b60008135905061132381611d6f565b92915050565b60008135905061133881611d86565b92915050565b60008151905061134d81611d86565b92915050565b60006020828403121561136557600080fd5b6000611373848285016112ea565b91505092915050565b6000806040838503121561138f57600080fd5b600061139d858286016112ea565b92505060206113ae85828601611329565b9150509250929050565b6000602082840312156113ca57600080fd5b60006113d8848285016112ff565b91505092915050565b6000602082840312156113f357600080fd5b600061140184828501611314565b91505092915050565b60006020828403121561141c57600080fd5b600061142a8482850161133e565b91505092915050565b6000806040838503121561144657600080fd5b600061145485828601611329565b9250506020611465858286016112ea565b9150509250929050565b61147881611bf8565b82525050565b61148781611c0a565b82525050565b61149681611c52565b82525050565b6114a581611c76565b82525050565b60006114b8603283611b06565b91507f41697264726f703a20746f6b656e7320666f722061697264726f70206861766560008301527f206e6f74206265656e206c6f63617465642100000000000000000000000000006020830152604082019050919050565b600061151e602883611b06565b91507f43726f776473616c653a206f6e6c792061646d696e2063616e20656e6420637260008301527f6f776473616c65210000000000000000000000000000000000000000000000006020830152604082019050919050565b6000611584600883611b06565b91507f70757263686173650000000000000000000000000000000000000000000000006000830152602082019050919050565b60006115c4602583611b06565b91507f43726f776473616c653a20756e61626c6520746f20726577617264207265666560008301527f72726572210000000000000000000000000000000000000000000000000000006020830152604082019050919050565b600061162a600583611b06565b91507f626f6e75730000000000000000000000000000000000000000000000000000006000830152602082019050919050565b600061166a602083611b06565b91507f43726f776473616c653a204661696c656420746f2073656e64206574686572216000830152602082019050919050565b60006116aa603883611b06565b91507f43726f776473616c653a206d73672e76616c7565206d75737420657175616c2060008301527f6e756d626572206f6620746f6b656e7320696e207765692100000000000000006020830152604082019050919050565b6000611710602983611b06565b91507f41697264726f703a20616d6f756e7420746f20626520636c61696d656420697360008301527f206e6f74207365742100000000000000000000000000000000000000000000006020830152604082019050919050565b6000611776602c83611b06565b91507f41697264726f703a20796f752776652072656369657665642061697264726f7060008301527f2070726576696f75736c792100000000000000000000000000000000000000006020830152604082019050919050565b60006117dc600083611afb565b9150600082019050919050565b60006117f6603483611b06565b91507f43726f776473616c653a20596f752063616e277420627579206d6f726520746f60008301527f6b656e73207468616e20617661696c61626c65210000000000000000000000006020830152604082019050919050565b600061185c601b83611b06565b91507f41697264726f703a2061697264726f702068617320656e6465642100000000006000830152602082019050919050565b61189881611c48565b82525050565b60006118a9826117cf565b9150819050919050565b60006020820190506118c8600083018461146f565b92915050565b60006040820190506118e3600083018561146f565b6118f0602083018461188f565b9392505050565b600060208201905061190c600083018461147e565b92915050565b6000602082019050611927600083018461148d565b92915050565b6000602082019050611942600083018461149c565b92915050565b60006020820190508181036000830152611961816114ab565b9050919050565b6000602082019050818103600083015261198181611511565b9050919050565b600060208201905081810360008301526119a1816115b7565b9050919050565b600060208201905081810360008301526119c18161165d565b9050919050565b600060208201905081810360008301526119e18161169d565b9050919050565b60006020820190508181036000830152611a0181611703565b9050919050565b60006020820190508181036000830152611a2181611769565b9050919050565b60006020820190508181036000830152611a41816117e9565b9050919050565b60006020820190508181036000830152611a618161184f565b9050919050565b6000602082019050611a7d600083018461188f565b92915050565b6000606082019050611a98600083018561188f565b611aa5602083018461146f565b8181036040830152611ab681611577565b90509392505050565b6000606082019050611ad4600083018561188f565b611ae1602083018461146f565b8181036040830152611af28161161d565b90509392505050565b600081905092915050565b600082825260208201905092915050565b6000611b2282611c48565b9150611b2d83611c48565b9250827fffffffffffffffffffffffffffffffffffffffffffffffffffffffffffffffff03821115611b6257611b61611ce3565b5b828201905092915050565b6000611b7882611c48565b9150611b8383611c48565b925082611b9357611b92611d12565b5b828204905092915050565b6000611ba982611c48565b9150611bb483611c48565b9250817fffffffffffffffffffffffffffffffffffffffffffffffffffffffffffffffff0483118215151615611bed57611bec611ce3565b5b828202905092915050565b6000611c0382611c28565b9050919050565b60008115159050919050565b6000611c2182611bf8565b9050919050565b600073ffffffffffffffffffffffffffffffffffffffff82169050919050565b6000819050919050565b6000611c5d82611c64565b9050919050565b6000611c6f82611c28565b9050919050565b6000611c8182611c88565b9050919050565b6000611c9382611c28565b9050919050565b6000611ca582611c48565b91507fffffffffffffffffffffffffffffffffffffffffffffffffffffffffffffffff821415611cd857611cd7611ce3565b5b600182019050919050565b7f4e487b7100000000000000000000000000000000000000000000000000000000600052601160045260246000fd5b7f4e487b7100000000000000000000000000000000000000000000000000000000600052601260045260246000fd5b611d4a81611bf8565b8114611d5557600080fd5b50565b611d6181611c0a565b8114611d6c57600080fd5b50565b611d7881611c16565b8114611d8357600080fd5b50565b611d8f81611c48565b8114611d9a57600080fd5b5056fea26469706673582212207c8c98d22b676ceb59e66f766dc23f8a2bf425a4d0ad6f0b6d5a6a88618abed664736f6c63430008000033",
  "linkReferences": {},
  "deployedLinkReferences": {}
}