{
  "_format": "hh-sol-artifact-1",
  "contractName": "TokenTimeLock",
  "sourceName": "contracts/TokenTimeLock.sol",
  "abi": [
    {
      "inputs": [
        {
          "internalType": "contract LinkToken",
          "name": "_token",
          "type": "address"
        },
        {
          "internalType": "uint256",
          "name": "_releaseTime",
          "type": "uint256"
        },
        {
          "internalType": "address",
          "name": "_admin",
          "type": "address"
        }
      ],
      "stateMutability": "nonpayable",
      "type": "constructor"
    },
    {
      "anonymous": false,
      "inputs": [
        {
          "indexed": true,
          "internalType": "address",
          "name": "previousOwner",
          "type": "address"
        },
        {
          "indexed": true,
          "internalType": "address",
          "name": "newOwner",
          "type": "address"
        }
      ],
      "name": "OwnershipTransferred",
      "type": "event"
    },
    {
      "anonymous": false,
      "inputs": [
        {
          "indexed": true,
          "internalType": "address",
          "name": "_claimer",
          "type": "address"
        },
        {
          "indexed": true,
          "internalType": "uint256",
          "name": "_amount_claimed",
          "type": "uint256"
        }
      ],
      "name": "TokenIsClaimed",
      "type": "event"
    },
    {
      "anonymous": false,
      "inputs": [
        {
          "indexed": true,
          "internalType": "address",
          "name": "_beneficiary",
          "type": "address"
        },
        {
          "indexed": true,
          "internalType": "uint256",
          "name": "_amount_locked",
          "type": "uint256"
        },
        {
          "indexed": false,
          "internalType": "uint256",
          "name": "_releaseTime",
          "type": "uint256"
        }
      ],
      "name": "TokenIsLocked",
      "type": "event"
    },
    {
      "inputs": [
        {
          "internalType": "address",
          "name": "",
          "type": "address"
        }
      ],
      "name": "TotalUserTokensLocked",
      "outputs": [
        {
          "internalType": "uint256",
          "name": "",
          "type": "uint256"
        }
      ],
      "stateMutability": "view",
      "type": "function"
    },
    {
      "inputs": [
        {
          "internalType": "address",
          "name": "",
          "type": "address"
        },
        {
          "internalType": "uint256",
          "name": "",
          "type": "uint256"
        }
      ],
      "name": "UserTokenVault",
      "outputs": [
        {
          "internalType": "address",
          "name": "beneficiary",
          "type": "address"
        },
        {
          "internalType": "uint256",
          "name": "amount_locked",
          "type": "uint256"
        },
        {
          "internalType": "uint256",
          "name": "release_time",
          "type": "uint256"
        },
        {
          "internalType": "string",
          "name": "category",
          "type": "string"
        },
        {
          "internalType": "bool",
          "name": "isReleased",
          "type": "bool"
        },
        {
          "internalType": "bool",
          "name": "isExists",
          "type": "bool"
        }
      ],
      "stateMutability": "view",
      "type": "function"
    },
    {
      "inputs": [],
      "name": "admin",
      "outputs": [
        {
          "internalType": "address",
          "name": "",
          "type": "address"
        }
      ],
      "stateMutability": "view",
      "type": "function"
    },
    {
      "inputs": [
        {
          "internalType": "uint256",
          "name": "vault_id",
          "type": "uint256"
        }
      ],
      "name": "claim",
      "outputs": [
        {
          "internalType": "bool",
          "name": "success",
          "type": "bool"
        }
      ],
      "stateMutability": "nonpayable",
      "type": "function"
    },
    {
      "inputs": [
        {
          "internalType": "uint256",
          "name": "amount_to_lock",
          "type": "uint256"
        },
        {
          "internalType": "address",
          "name": "beneficiary",
          "type": "address"
        },
        {
          "internalType": "string",
          "name": "category",
          "type": "string"
        }
      ],
      "name": "lockUserToken",
      "outputs": [
        {
          "internalType": "bool",
          "name": "success",
          "type": "bool"
        }
      ],
      "stateMutability": "nonpayable",
      "type": "function"
    },
    {
      "inputs": [],
      "name": "owner",
      "outputs": [
        {
          "internalType": "address",
          "name": "",
          "type": "address"
        }
      ],
      "stateMutability": "view",
      "type": "function"
    },
    {
      "inputs": [],
      "name": "releaseTime",
      "outputs": [
        {
          "internalType": "uint256",
          "name": "",
          "type": "uint256"
        }
      ],
      "stateMutability": "view",
      "type": "function"
    },
    {
      "inputs": [],
      "name": "renounceOwnership",
      "outputs": [],
      "stateMutability": "nonpayable",
      "type": "function"
    },
    {
      "inputs": [],
      "name": "totalTokensLocked",
      "outputs": [
        {
          "internalType": "uint256",
          "name": "",
          "type": "uint256"
        }
      ],
      "stateMutability": "view",
      "type": "function"
    },
    {
      "inputs": [
        {
          "internalType": "address",
          "name": "",
          "type": "address"
        }
      ],
      "name": "totalUserVaults",
      "outputs": [
        {
          "internalType": "uint256",
          "name": "",
          "type": "uint256"
        }
      ],
      "stateMutability": "view",
      "type": "function"
    },
    {
      "inputs": [
        {
          "internalType": "address",
          "name": "newOwner",
          "type": "address"
        }
      ],
      "name": "transferOwnership",
      "outputs": [],
      "stateMutability": "nonpayable",
      "type": "function"
    }
  ],
  "bytecode": "0x60806040523480156200001157600080fd5b5060405162001c9d38038062001c9d83398181016040528101906200003791906200024c565b620000576200004b6200013b60201b60201c565b6200014360201b60201c565b4282426200006691906200033d565b11620000a9576040517f08c379a0000000000000000000000000000000000000000000000000000000008152600401620000a0906200030a565b60405180910390fd5b82600160006101000a81548173ffffffffffffffffffffffffffffffffffffffff021916908373ffffffffffffffffffffffffffffffffffffffff1602179055508160028190555080600460006101000a81548173ffffffffffffffffffffffffffffffffffffffff021916908373ffffffffffffffffffffffffffffffffffffffff16021790555050505062000469565b600033905090565b60008060009054906101000a900473ffffffffffffffffffffffffffffffffffffffff169050816000806101000a81548173ffffffffffffffffffffffffffffffffffffffff021916908373ffffffffffffffffffffffffffffffffffffffff1602179055508173ffffffffffffffffffffffffffffffffffffffff168173ffffffffffffffffffffffffffffffffffffffff167f8be0079c531659141344cd1fd0a4f28419497f9722a3daafe3b4186f6b6457e060405160405180910390a35050565b60008151905062000218816200041b565b92915050565b6000815190506200022f8162000435565b92915050565b60008151905062000246816200044f565b92915050565b6000806000606084860312156200026257600080fd5b600062000272868287016200021e565b9350506020620002858682870162000235565b9250506040620002988682870162000207565b9150509250925092565b6000620002b1603f836200032c565b91507f546f6b656e54696d656c6f636b3a2072656c656173652074696d652073686f7560008301527f6c642062652067726561746572207468616e2063757272656e742074696d65006020830152604082019050919050565b600060208201905081810360008301526200032581620002a2565b9050919050565b600082825260208201905092915050565b60006200034a82620003e2565b91506200035783620003e2565b9250827fffffffffffffffffffffffffffffffffffffffffffffffffffffffffffffffff038211156200038f576200038e620003ec565b5b828201905092915050565b6000620003a782620003c2565b9050919050565b6000620003bb826200039a565b9050919050565b600073ffffffffffffffffffffffffffffffffffffffff82169050919050565b6000819050919050565b7f4e487b7100000000000000000000000000000000000000000000000000000000600052601160045260246000fd5b62000426816200039a565b81146200043257600080fd5b50565b6200044081620003ae565b81146200044c57600080fd5b50565b6200045a81620003e2565b81146200046657600080fd5b50565b61182480620004796000396000f3fe608060405234801561001057600080fd5b50600436106100a95760003560e01c8063bad2e75f11610071578063bad2e75f14610159578063cc1ed03414610189578063dc5bf961146101b9578063f2fde38b146101d7578063f423b645146101f3578063f851a44014610223576100a9565b8063379607f5146100ae578063715018a6146100de5780637b209a1f146100e85780638da5cb5b1461011d578063b91d40011461013b575b600080fd5b6100c860048036038101906100c39190610fc9565b610241565b6040516100d591906113e9565b60405180910390f35b6100e661065e565b005b61010260048036038101906100fd9190610f64565b6106e6565b60405161011496959493929190611381565b60405180910390f35b6101256107f1565b604051610132919061133d565b60405180910390f35b61014361081a565b60405161015091906114e4565b60405180910390f35b610173600480360381019061016e9190610ff2565b610820565b60405161018091906113e9565b60405180910390f35b6101a3600480360381019061019e9190610f3b565b6109df565b6040516101b091906114e4565b60405180910390f35b6101c16109f7565b6040516101ce91906114e4565b60405180910390f35b6101f160048036038101906101ec9190610f3b565b6109fd565b005b61020d60048036038101906102089190610f3b565b610af5565b60405161021a91906114e4565b60405180910390f35b61022b610b0d565b604051610238919061133d565b60405180910390f35b6000803390506000600560008373ffffffffffffffffffffffffffffffffffffffff1673ffffffffffffffffffffffffffffffffffffffff1681526020019081526020016000206000858152602001908152602001600020600101549050600560008373ffffffffffffffffffffffffffffffffffffffff1673ffffffffffffffffffffffffffffffffffffffff168152602001908152602001600020600085815260200190815260200160002060040160019054906101000a900460ff1661033f576040517f08c379a0000000000000000000000000000000000000000000000000000000008152600401610336906114c4565b60405180910390fd5b600560008373ffffffffffffffffffffffffffffffffffffffff1673ffffffffffffffffffffffffffffffffffffffff1681526020019081526020016000206000858152602001908152602001600020600201544210156103d5576040517f08c379a00000000000000000000000000000000000000000000000000000000081526004016103cc90611444565b60405180910390fd5b60001515600560008473ffffffffffffffffffffffffffffffffffffffff1673ffffffffffffffffffffffffffffffffffffffff168152602001908152602001600020600086815260200190815260200160002060040160009054906101000a900460ff1615151461047c576040517f08c379a000000000000000000000000000000000000000000000000000000000815260040161047390611484565b60405180910390fd5b600160009054906101000a900473ffffffffffffffffffffffffffffffffffffffff1673ffffffffffffffffffffffffffffffffffffffff1663a9059cbb83836040518363ffffffff1660e01b81526004016104d9929190611358565b602060405180830381600087803b1580156104f357600080fd5b505af1158015610507573d6000803e3d6000fd5b505050506040513d601f19601f8201168201806040525081019061052b9190610fa0565b61053457600080fd5b806003600082825461054691906115d2565b9250508190555080600760008473ffffffffffffffffffffffffffffffffffffffff1673ffffffffffffffffffffffffffffffffffffffff168152602001908152602001600020600082825461059c91906115d2565b925050819055506001600560008473ffffffffffffffffffffffffffffffffffffffff1673ffffffffffffffffffffffffffffffffffffffff168152602001908152602001600020600086815260200190815260200160002060040160006101000a81548160ff021916908315150217905550808273ffffffffffffffffffffffffffffffffffffffff167f96b3757bb39cd91171415fdd1fcd9833660525bef34bd615cdb6b5b0e07a5ceb60405160405180910390a3600192505050919050565b610666610b33565b73ffffffffffffffffffffffffffffffffffffffff166106846107f1565b73ffffffffffffffffffffffffffffffffffffffff16146106da576040517f08c379a00000000000000000000000000000000000000000000000000000000081526004016106d190611464565b60405180910390fd5b6106e46000610b3b565b565b6005602052816000526040600020602052806000526040600020600091509150508060000160009054906101000a900473ffffffffffffffffffffffffffffffffffffffff169080600101549080600201549080600301805461074890611690565b80601f016020809104026020016040519081016040528092919081815260200182805461077490611690565b80156107c15780601f10610796576101008083540402835291602001916107c1565b820191906000526020600020905b8154815290600101906020018083116107a457829003601f168201915b5050505050908060040160009054906101000a900460ff16908060040160019054906101000a900460ff16905086565b60008060009054906101000a900473ffffffffffffffffffffffffffffffffffffffff16905090565b60025481565b6000600460009054906101000a900473ffffffffffffffffffffffffffffffffffffffff1673ffffffffffffffffffffffffffffffffffffffff163373ffffffffffffffffffffffffffffffffffffffff16146108b2576040517f08c379a00000000000000000000000000000000000000000000000000000000081526004016108a990611424565b60405180910390fd5b600084116108f5576040517f08c379a00000000000000000000000000000000000000000000000000000000081526004016108ec906114a4565b60405180910390fd5b600060025442610905919061157c565b9050610915848683600087610bff565b8460036000828254610927919061157c565b9250508190555084600760008673ffffffffffffffffffffffffffffffffffffffff1673ffffffffffffffffffffffffffffffffffffffff168152602001908152602001600020600082825461097d919061157c565b92505081905550848473ffffffffffffffffffffffffffffffffffffffff167fabbda7bb4f7ea1cbe044c797187abf112cfb132d168848aa504315620375734e836040516109cb91906114e4565b60405180910390a360019150509392505050565b60066020528060005260406000206000915090505481565b60035481565b610a05610b33565b73ffffffffffffffffffffffffffffffffffffffff16610a236107f1565b73ffffffffffffffffffffffffffffffffffffffff1614610a79576040517f08c379a0000000000000000000000000000000000000000000000000000000008152600401610a7090611464565b60405180910390fd5b600073ffffffffffffffffffffffffffffffffffffffff168173ffffffffffffffffffffffffffffffffffffffff161415610ae9576040517f08c379a0000000000000000000000000000000000000000000000000000000008152600401610ae090611404565b60405180910390fd5b610af281610b3b565b50565b60076020528060005260406000206000915090505481565b600460009054906101000a900473ffffffffffffffffffffffffffffffffffffffff1681565b600033905090565b60008060009054906101000a900473ffffffffffffffffffffffffffffffffffffffff169050816000806101000a81548173ffffffffffffffffffffffffffffffffffffffff021916908373ffffffffffffffffffffffffffffffffffffffff1602179055508173ffffffffffffffffffffffffffffffffffffffff168173ffffffffffffffffffffffffffffffffffffffff167f8be0079c531659141344cd1fd0a4f28419497f9722a3daafe3b4186f6b6457e060405160405180910390a35050565b6000600660008773ffffffffffffffffffffffffffffffffffffffff1673ffffffffffffffffffffffffffffffffffffffff1681526020019081526020016000205490506040518060c001604052808773ffffffffffffffffffffffffffffffffffffffff168152602001868152602001858152602001838152602001841515815260200160011515815250600560008873ffffffffffffffffffffffffffffffffffffffff1673ffffffffffffffffffffffffffffffffffffffff168152602001908152602001600020600083815260200190815260200160002060008201518160000160006101000a81548173ffffffffffffffffffffffffffffffffffffffff021916908373ffffffffffffffffffffffffffffffffffffffff16021790555060208201518160010155604082015181600201556060820151816003019080519060200190610d52929190610df1565b5060808201518160040160006101000a81548160ff02191690831515021790555060a08201518160040160016101000a81548160ff021916908315150217905550905050600660008773ffffffffffffffffffffffffffffffffffffffff1673ffffffffffffffffffffffffffffffffffffffff16815260200190815260200160002060008154610de2906116c2565b91905081905550505050505050565b828054610dfd90611690565b90600052602060002090601f016020900481019282610e1f5760008555610e66565b82601f10610e3857805160ff1916838001178555610e66565b82800160010185558215610e66579182015b82811115610e65578251825591602001919060010190610e4a565b5b509050610e739190610e77565b5090565b5b80821115610e90576000816000905550600101610e78565b5090565b6000610ea7610ea284611530565b6114ff565b905082815260208101848484011115610ebf57600080fd5b610eca84828561164e565b509392505050565b600081359050610ee1816117a9565b92915050565b600081519050610ef6816117c0565b92915050565b600082601f830112610f0d57600080fd5b8135610f1d848260208601610e94565b91505092915050565b600081359050610f35816117d7565b92915050565b600060208284031215610f4d57600080fd5b6000610f5b84828501610ed2565b91505092915050565b60008060408385031215610f7757600080fd5b6000610f8585828601610ed2565b9250506020610f9685828601610f26565b9150509250929050565b600060208284031215610fb257600080fd5b6000610fc084828501610ee7565b91505092915050565b600060208284031215610fdb57600080fd5b6000610fe984828501610f26565b91505092915050565b60008060006060848603121561100757600080fd5b600061101586828701610f26565b935050602061102686828701610ed2565b925050604084013567ffffffffffffffff81111561104357600080fd5b61104f86828701610efc565b9150509250925092565b61106281611606565b82525050565b61107181611618565b82525050565b600061108282611560565b61108c818561156b565b935061109c81856020860161165d565b6110a581611798565b840191505092915050565b60006110bd60268361156b565b91507f4f776e61626c653a206e6577206f776e657220697320746865207a65726f206160008301527f64647265737300000000000000000000000000000000000000000000000000006020830152604082019050919050565b600061112360348361156b565b91507f546f6b656e54696d654c6f636b3a206f6e6c792061646d696e20697320616c6c60008301527f6f77656420746f206c6f636b20746f6b656e73210000000000000000000000006020830152604082019050919050565b600061118960268361156b565b91507f54696d654c6f636b3a206c6f636b20706572696f64206973207374696c6c206160008301527f63746976652100000000000000000000000000000000000000000000000000006020830152604082019050919050565b60006111ef60208361156b565b91507f4f776e61626c653a2063616c6c6572206973206e6f7420746865206f776e65726000830152602082019050919050565b600061122f60298361156b565b91507f54696d654c6f636b3a20746f6b656e20686173206265656e20636c61696d656460008301527f20616c72656164792100000000000000000000000000000000000000000000006020830152604082019050919050565b6000611295602f8361156b565b91507f546f6b656e54696d654c6f636b3a206e6f20746f6b656e7320737570706c696560008301527f6420746f206265206c6f636b65642100000000000000000000000000000000006020830152604082019050919050565b60006112fb601f8361156b565b91507f54696d654c6f636b3a207661756c7420646f6573206e6f7420657869737421006000830152602082019050919050565b61133781611644565b82525050565b60006020820190506113526000830184611059565b92915050565b600060408201905061136d6000830185611059565b61137a602083018461132e565b9392505050565b600060c0820190506113966000830189611059565b6113a3602083018861132e565b6113b0604083018761132e565b81810360608301526113c28186611077565b90506113d16080830185611068565b6113de60a0830184611068565b979650505050505050565b60006020820190506113fe6000830184611068565b92915050565b6000602082019050818103600083015261141d816110b0565b9050919050565b6000602082019050818103600083015261143d81611116565b9050919050565b6000602082019050818103600083015261145d8161117c565b9050919050565b6000602082019050818103600083015261147d816111e2565b9050919050565b6000602082019050818103600083015261149d81611222565b9050919050565b600060208201905081810360008301526114bd81611288565b9050919050565b600060208201905081810360008301526114dd816112ee565b9050919050565b60006020820190506114f9600083018461132e565b92915050565b6000604051905081810181811067ffffffffffffffff8211171561152657611525611769565b5b8060405250919050565b600067ffffffffffffffff82111561154b5761154a611769565b5b601f19601f8301169050602081019050919050565b600081519050919050565b600082825260208201905092915050565b600061158782611644565b915061159283611644565b9250827fffffffffffffffffffffffffffffffffffffffffffffffffffffffffffffffff038211156115c7576115c661170b565b5b828201905092915050565b60006115dd82611644565b91506115e883611644565b9250828210156115fb576115fa61170b565b5b828203905092915050565b600061161182611624565b9050919050565b60008115159050919050565b600073ffffffffffffffffffffffffffffffffffffffff82169050919050565b6000819050919050565b82818337600083830152505050565b60005b8381101561167b578082015181840152602081019050611660565b8381111561168a576000848401525b50505050565b600060028204905060018216806116a857607f821691505b602082108114156116bc576116bb61173a565b5b50919050565b60006116cd82611644565b91507fffffffffffffffffffffffffffffffffffffffffffffffffffffffffffffffff821415611700576116ff61170b565b5b600182019050919050565b7f4e487b7100000000000000000000000000000000000000000000000000000000600052601160045260246000fd5b7f4e487b7100000000000000000000000000000000000000000000000000000000600052602260045260246000fd5b7f4e487b7100000000000000000000000000000000000000000000000000000000600052604160045260246000fd5b6000601f19601f8301169050919050565b6117b281611606565b81146117bd57600080fd5b50565b6117c981611618565b81146117d457600080fd5b50565b6117e081611644565b81146117eb57600080fd5b5056fea2646970667358221220f32794366eb9e1bcd13597de391338d19eb2c13d6e2ed0c6ad564fdbf3bc448e64736f6c63430008000033",
  "linkReferences": {},
  "deployedLinkReferences": {}
}